{
  "contractName": "nUSD",
  "abi": [
    {
      "inputs": [],
      "stateMutability": "nonpayable",
      "type": "constructor"
    },
    {
      "anonymous": false,
      "inputs": [
        {
          "indexed": true,
          "internalType": "address",
          "name": "owner",
          "type": "address"
        },
        {
          "indexed": true,
          "internalType": "address",
          "name": "spender",
          "type": "address"
        },
        {
          "indexed": false,
          "internalType": "uint256",
          "name": "value",
          "type": "uint256"
        }
      ],
      "name": "Approval",
      "type": "event"
    },
    {
      "anonymous": false,
      "inputs": [
        {
          "indexed": true,
          "internalType": "address",
          "name": "from",
          "type": "address"
        },
        {
          "indexed": true,
          "internalType": "address",
          "name": "to",
          "type": "address"
        },
        {
          "indexed": false,
          "internalType": "uint256",
          "name": "value",
          "type": "uint256"
        }
      ],
      "name": "Transfer",
      "type": "event"
    },
    {
      "inputs": [],
      "name": "_decimals",
      "outputs": [
        {
          "internalType": "uint8",
          "name": "",
          "type": "uint8"
        }
      ],
      "stateMutability": "view",
      "type": "function",
      "constant": true
    },
    {
      "inputs": [],
      "name": "_name",
      "outputs": [
        {
          "internalType": "string",
          "name": "",
          "type": "string"
        }
      ],
      "stateMutability": "view",
      "type": "function",
      "constant": true
    },
    {
      "inputs": [],
      "name": "_symbol",
      "outputs": [
        {
          "internalType": "string",
          "name": "",
          "type": "string"
        }
      ],
      "stateMutability": "view",
      "type": "function",
      "constant": true
    },
    {
      "inputs": [
        {
          "internalType": "address",
          "name": "owner",
          "type": "address"
        },
        {
          "internalType": "address",
          "name": "spender",
          "type": "address"
        }
      ],
      "name": "allowance",
      "outputs": [
        {
          "internalType": "uint256",
          "name": "",
          "type": "uint256"
        }
      ],
      "stateMutability": "view",
      "type": "function",
      "constant": true
    },
    {
      "inputs": [
        {
          "internalType": "address",
          "name": "spender",
          "type": "address"
        },
        {
          "internalType": "uint256",
          "name": "amount",
          "type": "uint256"
        }
      ],
      "name": "approve",
      "outputs": [
        {
          "internalType": "bool",
          "name": "",
          "type": "bool"
        }
      ],
      "stateMutability": "nonpayable",
      "type": "function"
    },
    {
      "inputs": [
        {
          "internalType": "address",
          "name": "account",
          "type": "address"
        }
      ],
      "name": "balanceOf",
      "outputs": [
        {
          "internalType": "uint256",
          "name": "",
          "type": "uint256"
        }
      ],
      "stateMutability": "view",
      "type": "function",
      "constant": true
    },
    {
      "inputs": [
        {
          "internalType": "address",
          "name": "spender",
          "type": "address"
        },
        {
          "internalType": "uint256",
          "name": "subtractedValue",
          "type": "uint256"
        }
      ],
      "name": "decreaseAllowance",
      "outputs": [
        {
          "internalType": "bool",
          "name": "",
          "type": "bool"
        }
      ],
      "stateMutability": "nonpayable",
      "type": "function"
    },
    {
      "inputs": [
        {
          "internalType": "address",
          "name": "spender",
          "type": "address"
        },
        {
          "internalType": "uint256",
          "name": "addedValue",
          "type": "uint256"
        }
      ],
      "name": "increaseAllowance",
      "outputs": [
        {
          "internalType": "bool",
          "name": "",
          "type": "bool"
        }
      ],
      "stateMutability": "nonpayable",
      "type": "function"
    },
    {
      "inputs": [],
      "name": "name",
      "outputs": [
        {
          "internalType": "string",
          "name": "",
          "type": "string"
        }
      ],
      "stateMutability": "view",
      "type": "function",
      "constant": true
    },
    {
      "inputs": [],
      "name": "symbol",
      "outputs": [
        {
          "internalType": "string",
          "name": "",
          "type": "string"
        }
      ],
      "stateMutability": "view",
      "type": "function",
      "constant": true
    },
    {
      "inputs": [],
      "name": "totalSupply",
      "outputs": [
        {
          "internalType": "uint256",
          "name": "",
          "type": "uint256"
        }
      ],
      "stateMutability": "view",
      "type": "function",
      "constant": true
    },
    {
      "inputs": [
        {
          "internalType": "address",
          "name": "to",
          "type": "address"
        },
        {
          "internalType": "uint256",
          "name": "amount",
          "type": "uint256"
        }
      ],
      "name": "transfer",
      "outputs": [
        {
          "internalType": "bool",
          "name": "",
          "type": "bool"
        }
      ],
      "stateMutability": "nonpayable",
      "type": "function"
    },
    {
      "inputs": [
        {
          "internalType": "address",
          "name": "from",
          "type": "address"
        },
        {
          "internalType": "address",
          "name": "to",
          "type": "address"
        },
        {
          "internalType": "uint256",
          "name": "amount",
          "type": "uint256"
        }
      ],
      "name": "transferFrom",
      "outputs": [
        {
          "internalType": "bool",
          "name": "",
          "type": "bool"
        }
      ],
      "stateMutability": "nonpayable",
      "type": "function"
    },
    {
      "inputs": [],
      "name": "decimals",
      "outputs": [
        {
          "internalType": "uint8",
          "name": "",
          "type": "uint8"
        }
      ],
      "stateMutability": "view",
      "type": "function",
      "constant": true
    },
    {
      "inputs": [],
      "name": "depositETH",
      "outputs": [],
      "stateMutability": "payable",
      "type": "function",
      "payable": true
    },
    {
      "inputs": [],
      "name": "getLatestPrice",
      "outputs": [
        {
          "internalType": "int256",
          "name": "",
          "type": "int256"
        }
      ],
      "stateMutability": "view",
      "type": "function",
      "constant": true
    },
    {
      "inputs": [
        {
          "internalType": "uint256",
          "name": "amountInCents",
          "type": "uint256"
        }
      ],
      "name": "redeemETH",
      "outputs": [],
      "stateMutability": "payable",
      "type": "function",
      "payable": true
    }
  ],
  "bytecode": "0x60806040523480156200001157600080fd5b50604051806060016040528060258152602001620020db602591396040518060400160405280600481526020017f6e5553440000000000000000000000000000000000000000000000000000000081525081600390816200007391906200035d565b5080600490816200008591906200035d565b50505073d4a33860578de61dbabdc8bfdb98fd742fa7028e600560006101000a81548173ffffffffffffffffffffffffffffffffffffffff021916908373ffffffffffffffffffffffffffffffffffffffff16021790555062000444565b600081519050919050565b7f4e487b7100000000000000000000000000000000000000000000000000000000600052604160045260246000fd5b7f4e487b7100000000000000000000000000000000000000000000000000000000600052602260045260246000fd5b600060028204905060018216806200016557607f821691505b6020821081036200017b576200017a6200011d565b5b50919050565b60008190508160005260206000209050919050565b60006020601f8301049050919050565b600082821b905092915050565b600060088302620001e57fffffffffffffffffffffffffffffffffffffffffffffffffffffffffffffffff82620001a6565b620001f18683620001a6565b95508019841693508086168417925050509392505050565b6000819050919050565b6000819050919050565b60006200023e62000238620002328462000209565b62000213565b62000209565b9050919050565b6000819050919050565b6200025a836200021d565b62000272620002698262000245565b848454620001b3565b825550505050565b600090565b620002896200027a565b620002968184846200024f565b505050565b5b81811015620002be57620002b26000826200027f565b6001810190506200029c565b5050565b601f8211156200030d57620002d78162000181565b620002e28462000196565b81016020851015620002f2578190505b6200030a620003018562000196565b8301826200029b565b50505b505050565b600082821c905092915050565b6000620003326000198460080262000312565b1980831691505092915050565b60006200034d83836200031f565b9150826002028217905092915050565b6200036882620000e3565b67ffffffffffffffff811115620003845762000383620000ee565b5b6200039082546200014c565b6200039d828285620002c2565b600060209050601f831160018114620003d55760008415620003c0578287015190505b620003cc85826200033f565b8655506200043c565b601f198416620003e58662000181565b60005b828110156200040f57848901518255600182019150602085019450602081019050620003e8565b868310156200042f57848901516200042b601f8916826200031f565b8355505b6001600288020188555050505b505050505050565b611c8780620004546000396000f3fe6080604052600436106100fe5760003560e01c806370a0823111610095578063a9059cbb11610064578063a9059cbb14610352578063b09f12661461038f578063d28d8852146103ba578063dd62ed3e146103e5578063f6326fb314610422576100fe565b806370a08231146102825780638e15f473146102bf57806395d89b41146102ea578063a457c2d714610315576100fe565b8063313ce567116100d1578063313ce567146101d357806332424aa3146101fe5780633950935114610229578063525d02b814610266576100fe565b806306fdde0314610103578063095ea7b31461012e57806318160ddd1461016b57806323b872dd14610196575b600080fd5b34801561010f57600080fd5b5061011861042c565b60405161012591906111ae565b60405180910390f35b34801561013a57600080fd5b5061015560048036038101906101509190611269565b6104be565b60405161016291906112c4565b60405180910390f35b34801561017757600080fd5b506101806104e1565b60405161018d91906112ee565b60405180910390f35b3480156101a257600080fd5b506101bd60048036038101906101b89190611309565b6104eb565b6040516101ca91906112c4565b60405180910390f35b3480156101df57600080fd5b506101e861051a565b6040516101f59190611378565b60405180910390f35b34801561020a57600080fd5b50610213610523565b6040516102209190611378565b60405180910390f35b34801561023557600080fd5b50610250600480360381019061024b9190611269565b610528565b60405161025d91906112c4565b60405180910390f35b610280600480360381019061027b9190611393565b61055f565b005b34801561028e57600080fd5b506102a960048036038101906102a491906113c0565b6105ea565b6040516102b691906112ee565b60405180910390f35b3480156102cb57600080fd5b506102d4610632565b6040516102e19190611406565b60405180910390f35b3480156102f657600080fd5b506102ff6106d3565b60405161030c91906111ae565b60405180910390f35b34801561032157600080fd5b5061033c60048036038101906103379190611269565b610765565b60405161034991906112c4565b60405180910390f35b34801561035e57600080fd5b5061037960048036038101906103749190611269565b6107dc565b60405161038691906112c4565b60405180910390f35b34801561039b57600080fd5b506103a46107ff565b6040516103b191906111ae565b60405180910390f35b3480156103c657600080fd5b506103cf610838565b6040516103dc91906111ae565b60405180910390f35b3480156103f157600080fd5b5061040c60048036038101906104079190611421565b610854565b60405161041991906112ee565b60405180910390f35b61042a6108db565b005b60606003805461043b90611490565b80601f016020809104026020016040519081016040528092919081815260200182805461046790611490565b80156104b45780601f10610489576101008083540402835291602001916104b4565b820191906000526020600020905b81548152906001019060200180831161049757829003601f168201915b5050505050905090565b6000806104c961091e565b90506104d6818585610926565b600191505092915050565b6000600254905090565b6000806104f661091e565b9050610503858285610aef565b61050e858585610b7b565b60019150509392505050565b60006008905090565b600881565b60008061053361091e565b90506105548185856105458589610854565b61054f91906114f0565b610926565b600191505092915050565b6000610569610632565b60026105759190611524565b670de0b6b3a7640000836105899190611524565b6105939190611595565b905061059f3383610df1565b3373ffffffffffffffffffffffffffffffffffffffff166108fc829081150290604051600060405180830381858888f193505050501580156105e5573d6000803e3d6000fd5b505050565b60008060008373ffffffffffffffffffffffffffffffffffffffff1673ffffffffffffffffffffffffffffffffffffffff168152602001908152602001600020549050919050565b600080600560009054906101000a900473ffffffffffffffffffffffffffffffffffffffff1673ffffffffffffffffffffffffffffffffffffffff1663feaf968c6040518163ffffffff1660e01b815260040160a060405180830381865afa1580156106a2573d6000803e3d6000fd5b505050506040513d601f19601f820116820180604052508101906106c69190611649565b5050509150508091505090565b6060600480546106e290611490565b80601f016020809104026020016040519081016040528092919081815260200182805461070e90611490565b801561075b5780601f106107305761010080835404028352916020019161075b565b820191906000526020600020905b81548152906001019060200180831161073e57829003601f168201915b5050505050905090565b60008061077061091e565b9050600061077e8286610854565b9050838110156107c3576040517f08c379a00000000000000000000000000000000000000000000000000000000081526004016107ba90611736565b60405180910390fd5b6107d08286868403610926565b60019250505092915050565b6000806107e761091e565b90506107f4818585610b7b565b600191505092915050565b6040518060400160405280600481526020017f6e5553440000000000000000000000000000000000000000000000000000000081525081565b604051806060016040528060258152602001611c2d6025913981565b6000600160008473ffffffffffffffffffffffffffffffffffffffff1673ffffffffffffffffffffffffffffffffffffffff16815260200190815260200160002060008373ffffffffffffffffffffffffffffffffffffffff1673ffffffffffffffffffffffffffffffffffffffff16815260200190815260200160002054905092915050565b6000670de0b6b3a764000060026108f0610632565b346108fb9190611524565b6109059190611595565b61090f9190611524565b905061091b3382610fbe565b50565b600033905090565b600073ffffffffffffffffffffffffffffffffffffffff168373ffffffffffffffffffffffffffffffffffffffff1603610995576040517f08c379a000000000000000000000000000000000000000000000000000000000815260040161098c906117c8565b60405180910390fd5b600073ffffffffffffffffffffffffffffffffffffffff168273ffffffffffffffffffffffffffffffffffffffff1603610a04576040517f08c379a00000000000000000000000000000000000000000000000000000000081526004016109fb9061185a565b60405180910390fd5b80600160008573ffffffffffffffffffffffffffffffffffffffff1673ffffffffffffffffffffffffffffffffffffffff16815260200190815260200160002060008473ffffffffffffffffffffffffffffffffffffffff1673ffffffffffffffffffffffffffffffffffffffff168152602001908152602001600020819055508173ffffffffffffffffffffffffffffffffffffffff168373ffffffffffffffffffffffffffffffffffffffff167f8c5be1e5ebec7d5bd14f71427d1e84f3dd0314c0f7b2291e5b200ac8c7c3b92583604051610ae291906112ee565b60405180910390a3505050565b6000610afb8484610854565b90507fffffffffffffffffffffffffffffffffffffffffffffffffffffffffffffffff8114610b755781811015610b67576040517f08c379a0000000000000000000000000000000000000000000000000000000008152600401610b5e906118c6565b60405180910390fd5b610b748484848403610926565b5b50505050565b600073ffffffffffffffffffffffffffffffffffffffff168373ffffffffffffffffffffffffffffffffffffffff1603610bea576040517f08c379a0000000000000000000000000000000000000000000000000000000008152600401610be190611958565b60405180910390fd5b600073ffffffffffffffffffffffffffffffffffffffff168273ffffffffffffffffffffffffffffffffffffffff1603610c59576040517f08c379a0000000000000000000000000000000000000000000000000000000008152600401610c50906119ea565b60405180910390fd5b610c64838383611114565b60008060008573ffffffffffffffffffffffffffffffffffffffff1673ffffffffffffffffffffffffffffffffffffffff16815260200190815260200160002054905081811015610cea576040517f08c379a0000000000000000000000000000000000000000000000000000000008152600401610ce190611a7c565b60405180910390fd5b8181036000808673ffffffffffffffffffffffffffffffffffffffff1673ffffffffffffffffffffffffffffffffffffffff16815260200190815260200160002081905550816000808573ffffffffffffffffffffffffffffffffffffffff1673ffffffffffffffffffffffffffffffffffffffff168152602001908152602001600020600082825401925050819055508273ffffffffffffffffffffffffffffffffffffffff168473ffffffffffffffffffffffffffffffffffffffff167fddf252ad1be2c89b69c2b068fc378daa952ba7f163c4a11628f55a4df523b3ef84604051610dd891906112ee565b60405180910390a3610deb848484611119565b50505050565b600073ffffffffffffffffffffffffffffffffffffffff168273ffffffffffffffffffffffffffffffffffffffff1603610e60576040517f08c379a0000000000000000000000000000000000000000000000000000000008152600401610e5790611b0e565b60405180910390fd5b610e6c82600083611114565b60008060008473ffffffffffffffffffffffffffffffffffffffff1673ffffffffffffffffffffffffffffffffffffffff16815260200190815260200160002054905081811015610ef2576040517f08c379a0000000000000000000000000000000000000000000000000000000008152600401610ee990611ba0565b60405180910390fd5b8181036000808573ffffffffffffffffffffffffffffffffffffffff1673ffffffffffffffffffffffffffffffffffffffff1681526020019081526020016000208190555081600260008282540392505081905550600073ffffffffffffffffffffffffffffffffffffffff168373ffffffffffffffffffffffffffffffffffffffff167fddf252ad1be2c89b69c2b068fc378daa952ba7f163c4a11628f55a4df523b3ef84604051610fa591906112ee565b60405180910390a3610fb983600084611119565b505050565b600073ffffffffffffffffffffffffffffffffffffffff168273ffffffffffffffffffffffffffffffffffffffff160361102d576040517f08c379a000000000000000000000000000000000000000000000000000000000815260040161102490611c0c565b60405180910390fd5b61103960008383611114565b806002600082825461104b91906114f0565b92505081905550806000808473ffffffffffffffffffffffffffffffffffffffff1673ffffffffffffffffffffffffffffffffffffffff168152602001908152602001600020600082825401925050819055508173ffffffffffffffffffffffffffffffffffffffff16600073ffffffffffffffffffffffffffffffffffffffff167fddf252ad1be2c89b69c2b068fc378daa952ba7f163c4a11628f55a4df523b3ef836040516110fc91906112ee565b60405180910390a361111060008383611119565b5050565b505050565b505050565b600081519050919050565b600082825260208201905092915050565b60005b8381101561115857808201518184015260208101905061113d565b60008484015250505050565b6000601f19601f8301169050919050565b60006111808261111e565b61118a8185611129565b935061119a81856020860161113a565b6111a381611164565b840191505092915050565b600060208201905081810360008301526111c88184611175565b905092915050565b600080fd5b600073ffffffffffffffffffffffffffffffffffffffff82169050919050565b6000611200826111d5565b9050919050565b611210816111f5565b811461121b57600080fd5b50565b60008135905061122d81611207565b92915050565b6000819050919050565b61124681611233565b811461125157600080fd5b50565b6000813590506112638161123d565b92915050565b600080604083850312156112805761127f6111d0565b5b600061128e8582860161121e565b925050602061129f85828601611254565b9150509250929050565b60008115159050919050565b6112be816112a9565b82525050565b60006020820190506112d960008301846112b5565b92915050565b6112e881611233565b82525050565b600060208201905061130360008301846112df565b92915050565b600080600060608486031215611322576113216111d0565b5b60006113308682870161121e565b93505060206113418682870161121e565b925050604061135286828701611254565b9150509250925092565b600060ff82169050919050565b6113728161135c565b82525050565b600060208201905061138d6000830184611369565b92915050565b6000602082840312156113a9576113a86111d0565b5b60006113b784828501611254565b91505092915050565b6000602082840312156113d6576113d56111d0565b5b60006113e48482850161121e565b91505092915050565b6000819050919050565b611400816113ed565b82525050565b600060208201905061141b60008301846113f7565b92915050565b60008060408385031215611438576114376111d0565b5b60006114468582860161121e565b92505060206114578582860161121e565b9150509250929050565b7f4e487b7100000000000000000000000000000000000000000000000000000000600052602260045260246000fd5b600060028204905060018216806114a857607f821691505b6020821081036114bb576114ba611461565b5b50919050565b7f4e487b7100000000000000000000000000000000000000000000000000000000600052601160045260246000fd5b60006114fb82611233565b915061150683611233565b925082820190508082111561151e5761151d6114c1565b5b92915050565b600061152f82611233565b915061153a83611233565b925082820261154881611233565b9150828204841483151761155f5761155e6114c1565b5b5092915050565b7f4e487b7100000000000000000000000000000000000000000000000000000000600052601260045260246000fd5b60006115a082611233565b91506115ab83611233565b9250826115bb576115ba611566565b5b828204905092915050565b600069ffffffffffffffffffff82169050919050565b6115e5816115c6565b81146115f057600080fd5b50565b600081519050611602816115dc565b92915050565b611611816113ed565b811461161c57600080fd5b50565b60008151905061162e81611608565b92915050565b6000815190506116438161123d565b92915050565b600080600080600060a08688031215611665576116646111d0565b5b6000611673888289016115f3565b95505060206116848882890161161f565b945050604061169588828901611634565b93505060606116a688828901611634565b92505060806116b7888289016115f3565b9150509295509295909350565b7f45524332303a2064656372656173656420616c6c6f77616e63652062656c6f7760008201527f207a65726f000000000000000000000000000000000000000000000000000000602082015250565b6000611720602583611129565b915061172b826116c4565b604082019050919050565b6000602082019050818103600083015261174f81611713565b9050919050565b7f45524332303a20617070726f76652066726f6d20746865207a65726f2061646460008201527f7265737300000000000000000000000000000000000000000000000000000000602082015250565b60006117b2602483611129565b91506117bd82611756565b604082019050919050565b600060208201905081810360008301526117e1816117a5565b9050919050565b7f45524332303a20617070726f766520746f20746865207a65726f20616464726560008201527f7373000000000000000000000000000000000000000000000000000000000000602082015250565b6000611844602283611129565b915061184f826117e8565b604082019050919050565b6000602082019050818103600083015261187381611837565b9050919050565b7f45524332303a20696e73756666696369656e7420616c6c6f77616e6365000000600082015250565b60006118b0601d83611129565b91506118bb8261187a565b602082019050919050565b600060208201905081810360008301526118df816118a3565b9050919050565b7f45524332303a207472616e736665722066726f6d20746865207a65726f20616460008201527f6472657373000000000000000000000000000000000000000000000000000000602082015250565b6000611942602583611129565b915061194d826118e6565b604082019050919050565b6000602082019050818103600083015261197181611935565b9050919050565b7f45524332303a207472616e7366657220746f20746865207a65726f206164647260008201527f6573730000000000000000000000000000000000000000000000000000000000602082015250565b60006119d4602383611129565b91506119df82611978565b604082019050919050565b60006020820190508181036000830152611a03816119c7565b9050919050565b7f45524332303a207472616e7366657220616d6f756e742065786365656473206260008201527f616c616e63650000000000000000000000000000000000000000000000000000602082015250565b6000611a66602683611129565b9150611a7182611a0a565b604082019050919050565b60006020820190508181036000830152611a9581611a59565b9050919050565b7f45524332303a206275726e2066726f6d20746865207a65726f2061646472657360008201527f7300000000000000000000000000000000000000000000000000000000000000602082015250565b6000611af8602183611129565b9150611b0382611a9c565b604082019050919050565b60006020820190508181036000830152611b2781611aeb565b9050919050565b7f45524332303a206275726e20616d6f756e7420657863656564732062616c616e60008201527f6365000000000000000000000000000000000000000000000000000000000000602082015250565b6000611b8a602283611129565b9150611b9582611b2e565b604082019050919050565b60006020820190508181036000830152611bb981611b7d565b9050919050565b7f45524332303a206d696e7420746f20746865207a65726f206164647265737300600082015250565b6000611bf6601f83611129565b9150611c0182611bc0565b602082019050919050565b60006020820190508181036000830152611c2581611be9565b905091905056fe457468657265756d206261636b6564205553442070656767656420737461626c65636f696ea2646970667358221220657ffc727853c75502cec5b1c639aef6d5edd422e6b6aaa869e226921c6bf5ca64736f6c63430008110033457468657265756d206261636b6564205553442070656767656420737461626c65636f696e",
  "immutableReferences": {},
  "source": "// SPDX-License-Identifier: MIT\r\npragma solidity ^0.8.17;\r\n\r\nimport \"@openzeppelin/contracts/token/ERC20/ERC20.sol\";\r\nimport \"@chainlink/contracts/src/v0.8/interfaces/AggregatorV3Interface.sol\";\r\n\r\ncontract nUSD is ERC20 {\r\n    AggregatorV3Interface internal priceFeed;\r\n\r\n    string public constant _symbol = \"nUSD\";\r\n    string public constant _name = \"Ethereum backed USD pegged stablecoin\";\r\n    uint8 public constant _decimals = 8;\r\n\r\n    constructor() ERC20(_name, _symbol) {\r\n        priceFeed = AggregatorV3Interface(\r\n            0xD4a33860578De61DBAbDc8BFdb98FD742fA7028e\r\n        );\r\n    }\r\n\r\n    function decimals() public view virtual override returns (uint8) {\r\n        return _decimals;\r\n    }\r\n\r\n    //function that enables users to deposit eth and receive 50% of it value in nUSD.\r\n    function depositETH() public payable {\r\n        uint amountInUsd = ((msg.value * uint256(getLatestPrice())) / 2) *\r\n            1 ether;\r\n        _mint(msg.sender, amountInUsd);\r\n    }\r\n\r\n    //fucntion to get latest of eth usd using chainlink.\r\n    function getLatestPrice() public view returns (int) {\r\n        (, int price, , , ) = priceFeed.latestRoundData();\r\n        return price;\r\n    }\r\n\r\n    function redeemETH(uint amountInCents) public payable {\r\n        uint amountInWei = (amountInCents * 1 ether) /\r\n            (2 * uint256(getLatestPrice()));\r\n        _burn(msg.sender, amountInCents);\r\n        payable(msg.sender).transfer(amountInWei);\r\n    }\r\n}\r\n",
  "sourcePath": "D:\\nusd-stablecoin-dapp\\nusd-smart-contracts\\contracts\\nUSD.sol",
  "compiler": {
    "name": "solc",
    "version": "0.8.17+commit.8df45f5f.Emscripten.clang"
  },
  "schemaVersion": "3.4.9",
  "updatedAt": "2023-06-29T16:03:12.885Z",
  "networkType": "ethereum",
  "devdoc": {
    "kind": "dev",
    "methods": {
      "allowance(address,address)": {
        "details": "See {IERC20-allowance}."
      },
      "approve(address,uint256)": {
        "details": "See {IERC20-approve}. NOTE: If `amount` is the maximum `uint256`, the allowance is not updated on `transferFrom`. This is semantically equivalent to an infinite approval. Requirements: - `spender` cannot be the zero address."
      },
      "balanceOf(address)": {
        "details": "See {IERC20-balanceOf}."
      },
      "decimals()": {
        "details": "Returns the number of decimals used to get its user representation. For example, if `decimals` equals `2`, a balance of `505` tokens should be displayed to a user as `5.05` (`505 / 10 ** 2`). Tokens usually opt for a value of 18, imitating the relationship between Ether and Wei. This is the default value returned by this function, unless it's overridden. NOTE: This information is only used for _display_ purposes: it in no way affects any of the arithmetic of the contract, including {IERC20-balanceOf} and {IERC20-transfer}."
      },
      "decreaseAllowance(address,uint256)": {
        "details": "Atomically decreases the allowance granted to `spender` by the caller. This is an alternative to {approve} that can be used as a mitigation for problems described in {IERC20-approve}. Emits an {Approval} event indicating the updated allowance. Requirements: - `spender` cannot be the zero address. - `spender` must have allowance for the caller of at least `subtractedValue`."
      },
      "increaseAllowance(address,uint256)": {
        "details": "Atomically increases the allowance granted to `spender` by the caller. This is an alternative to {approve} that can be used as a mitigation for problems described in {IERC20-approve}. Emits an {Approval} event indicating the updated allowance. Requirements: - `spender` cannot be the zero address."
      },
      "name()": {
        "details": "Returns the name of the token."
      },
      "symbol()": {
        "details": "Returns the symbol of the token, usually a shorter version of the name."
      },
      "totalSupply()": {
        "details": "See {IERC20-totalSupply}."
      },
      "transfer(address,uint256)": {
        "details": "See {IERC20-transfer}. Requirements: - `to` cannot be the zero address. - the caller must have a balance of at least `amount`."
      },
      "transferFrom(address,address,uint256)": {
        "details": "See {IERC20-transferFrom}. Emits an {Approval} event indicating the updated allowance. This is not required by the EIP. See the note at the beginning of {ERC20}. NOTE: Does not update the allowance if the current allowance is the maximum `uint256`. Requirements: - `from` and `to` cannot be the zero address. - `from` must have a balance of at least `amount`. - the caller must have allowance for ``from``'s tokens of at least `amount`."
      }
    },
    "version": 1
  },
  "userdoc": {
    "kind": "user",
    "methods": {},
    "version": 1
  }
}